:20000000FFFFFFFF2222000044440000AAAAAAAA2A2A2A2AAAAAAAAA2222222244AAAA44BC
:20002000222222224444444433333333AAAAAAAA2A2A2A2AAAAAAAAA2222222244AAAA4400
:20004000222222224444444433333333AAAAAAAA2A2A2A2AAAAAAAAA2222222244AAAA44E0
:20006000222222224444444433333333AAAAAAAA2A2A2A2AAAAAAAAA2222222244AAAA44C0
:20008000FFF5000036360000AAAA00002A2A2A2AAAAAAAAA2222222244AAAA442222222270
:2000A0004444444433333333AAAAAAAA2A2A2A2AAAAAAAAA2222222244AAAA442222222280
:2000C0004444444433333333AAAAAAAA2A2A2A2AAAAAAAAA2222222244AAAA442222222260
:2000E0004444444433333333AAAAAAAA2A2A2A2AAAAAAAAA2222222222222222444444440C
:20010000FF005F002A2A000044440000AAAAAAAA2222222244AAAA44222222224444444401
:2001200033333333AAAAAAAA2A2A2A2AAAAAAAAA2222222244AAAA442222222244444444FF
:2001400033333333AAAAAAAA2A2A2A2AAAAAAAAA2222222244AAAA442222222244444444DF
:2001600033333333AAAAAAAA2A2A2A2AAAAAAAAA2222222244AAAA4444444444333333337B
:20018000FF0000F522220000000000002222222244AAAA442222222244444444333333335F
:2001A000AAAAAAAA2A2A2A2AAAAAAAAA2222222244AAAA442222222244444444333333337F
:2001C000AAAAAAAA2A2A2A2AAAAAAAAA2222222244AAAA442222222244444444333333335F
:2001E000AAAAAAAA2A2A2A2AAAAAAAAA2222222244AAAA442222222244AAAA4422222222B7
:00000001FF
